:020000040800F2
:10000000C0120020C11200088D32000895120008AD
:1000100095120008951200089512000800000000D3
:10002000000000000000000000000000150F0008A4
:100030009512000800000000C10E00089921000878
:10004000C50F0008C50F0008C50F0008C50F000840
:10005000C50F0008C50F0008C50F0008C50F000830
:10006000C50F0008C50F0008C50F0008C50F000820
:10007000C50F0008C50F0008C50F0008C50F000810
:10008000C50F0008C50F0008C50F0008C50F000800
:10009000C50F0008C50F0008C50F0008C50F0008F0
:1000A000C50F0008C50F0008C50F0008C50F0008E0
:1000B000C50F0008C50F0008C50F0008C50F0008D0
:1000C000C50F0008C50F0008C50F0008C50F0008C0
:1000D000C50F0008C50F0008C50F0008C50F0008B0
:1000E000C50F0008C50F0008C50F0008C50F0008A0
:1000F000C50F0008C50F0008C50F0008C50F000890
:10010000C50F0008C50F0008C50F0008C50F00087F
:10011000C50F0008C50F0008C50F0008C50F00086F
:10012000C50F0008C50F0008C50F0008C50F00085F
:10013000C50F0008C50F0008C50F0008C50F00084F
:10014000C50F0008C50F0008C50F0008C50F00083F
:10015000C50F0008C50F0008C50F0008C50F00082F
:10016000C50F0008C50F0008C50F0008C50F00081F
:10017000C50F0008C50F0008C50F0008C50F00080F
:10018000C50F0008C50F0008C50F0008C50F0008FF
:04019000C50F00088F
:1001940053B94AB9002908BF00281CBF4FF0FF31EA
:1001A4004FF0FF3000F00CB8ADF1080C6DE904CE4F
:1001B40000F01BF8DDF804E0DDE9022304B0704729
:1001C400704700BF430803F05533C01A00F03333BF
:1001D400800800F03330184400EB10104FF0013366
:1001E40000F00F305843000E70472DE9F047864663
:1001F4008C460846089E154674461946002B40F066
:10020400C2808542B2FA82F245D94AB1C2F12003D2
:1002140000FA02FC2EFA03F3954043EA0C0C9440D6
:100224004FEA154EA8B2BCFBFEF8230C0EFB18CC0B
:1002340008FB00F943EA0C43994528D9EB1808F167
:10024400FF3704D2994502D9A8F102072B44A3EB46
:100254000903A4B2B3FBFEFC0EFB1C330CFB00F041
:1002640044EA0344A04214D92C190CF1FF3304D2FC
:10027400A04202D9ACF102032C44241A43EA0740F9
:100284001EB1D440002334607360BDE8F087474654
:10029400DDE76346F1E792BB431B01214FEA154EAC
:1002A400AFB2B3FBFEFC200C0EFB1C330CFB07F8B7
:1002B40040EA0343984562D9EB180CF1FF3004D2AD
:1002C400984502D9ACF102002B44A3EB0803A4B275
:1002D400B3FBFEFC0EFB1C330CFB07F744EA0344A0
:1002E400A7424ED92C190CF1FF3304D2A74202D9EC
:1002F400ACF102032C44E41B43EA0040C0E7C2F122
:10030400200320FA03F1954090402EFA03F30343AF
:100314004FEA154EAFB2B1FBFEFC0EFB1C10190CDC
:100324000CFB07F841EA0041884504FA02F422D99B
:1003340069180CF1FF3004D2884502D9ACF10200EF
:100344002944A1EB08019BB2B1FBFEFC0EFB1C117E
:100354000CFB07F743EA01439F420ED9EB180CF15B
:10036400FF3104D29F4202D9ACF102012B44DB1BC2
:1003740041EA004192E76046E3E76146F7E76046F9
:10038400A3E76346B7E7834206D916B900210846B6
:100394007BE7C6E900E0F9E7B3FA83F78FB9834254
:1003A40001D3724508D8BEEB020460EB03030120BD
:1003B4009C461EB9002168E73846FAE7C6E9004CB6
:1003C400F8E7C7F1200CBB4022FA0CF41C432EFAC8
:1003D4000CF120FA0CF3B84001434FEA14490EFA29
:1003E40007F5B3FBF9F81FFA84FE09FB18300B0C70
:1003F40008FB0EFA43EA00439A4502FA07F240D991
:10040400E31808F1FF3004D29A4502D9A8F102009A
:100414002344A3EB0A0389B2B3FBF9F809FB1833AD
:1004240008FB0EFE41EA03418E452CD9611808F100
:10043400FF3304D28E4502D9A8F10203214443EAD2
:100444000040A0FB0298A1EB0E014145CE46434675
:1004540002D306D14D4504D2B9EB020E68EB040376
:100464000138002EA6D0B5EB0E0261EB030101FAB0
:100474000CFC22FA07F34CEA0303F940C6E9003105
:1004840098E74046C5E74346D9E700002DE9F04F19
:1004940089B01422002103A802F018FF0DF106030D
:1004A4000593474C02230693002554F8060C03F0E9
:1004B4000BFB28B9434802F066FE09B0BDE8F08F93
:1004C40014F8013C63B154F8060C836821461B6898
:1004D4009847021E07DA3C48294602F054FEECE72E
:1004E4006FF08502F7E70135052D04F11004DCD126
:1004F400DFF8D890364F374CDFF8DCB0484602F0CE
:1005040042FE0026A246256894F8048029684246E3
:10051400384602F038FE63794BB1012303FA08F33D
:100524000493A37B8DF81C30E37B8DF81D30AB68FE
:1005340003A95B6828469847011E03DA274802F09E
:1005440022FE0BE0BDF80610254802F01CFE63797C
:10055400BDF806507BB9234802F015FE0136052E7E
:1005640004F11004CFD100F03FF800214FF4FA60F9
:1005740002F06EFBBFE7E37994F80E80A079042BB8
:100584000ABF2368A2899B680AEB061108BF1A896F
:10059400897A8B0648BF08F1FF3305FB02F202A9F2
:1005A40048BF5FFA83F8029201F01CF8002805D1D5
:1005B400029D45FA08F529465846C0E7CBDBFAE721
:1005C400CE4200083A4600085B4600087D46000813
:1005D4008B460008C8420008D44600089E4600081E
:1005E400B3460008B6460008014802F0CCBD00BF7F
:1005F400DE460008014B1B68184700BFF8010020C5
:10060400014B1860704700BFF801002007B50B4686
:10061400002102460091034800F006F803B05DF89B
:1006240004FB00BFF90500082DE9F04F814695B0A1
:100634008B4617461C460025387808B9284658E3E7
:100644007B1C2528039306D05946C8470028C0F2CE
:1006540050830135FBE1182200210EA802F036FE7A
:100664007B78252B7DD00023781C98469E469C469B
:100674001E46014610F8012B2B2A00F0A18000F23F
:100684009880202A00F09F80232A00F09F802BB1BD
:100694009DF8403043F040038DF84030B8F1000F2E
:1006A40005D09DF8403043F020038DF84030BEF172
:1006B400000F05D09DF8403043F010038DF8403012
:1006C400BCF1000F05D09DF8403043F008038DF8CD
:1006D40040302EB19DF8403043F004038DF8403093
:1006E4009DF8403003F04400442803D16FF386138F
:1006F4008DF840309DF840302A2A43F080038DF86D
:1007040040307FD19DF8412042F001024B1C8DF80E
:1007140041201A782E2A9DF841200CBF0121002186
:1007240061F341028DF8412078D15A782A2A6ED09B
:10073400013300224FF00A0C194611F8010BA0F105
:100744003006092E40F295809DF840101292C1F3B4
:10075400400040EAD2700A4660F341028DF840201E
:100764005CE0BA1C03928DF843309DF84130DA07FF
:1007740040F12E8154F8048BB8F1000F07DA9DF88C
:10078400402042F004028DF84020C8F100085E07C2
:1007940040F1278154F804ABBAF1000F80F22681AE
:1007A4009DF841306FF341038DF841304FF0FF3A2B
:1007B4001CE12D2A0DD0302A7FF469AF012358E7BC
:1007C4004FF0010C55E74FF0010E52E74FF00108CE
:1007D4004FE701264DE70EFB0262303A0346184606
:1007E40010F8016BA6F1300CBCF1090FF3D9994252
:1007F4008FD09DF840101192D20F62F341018DF811
:10080400401086E70B4600224FF00A0EE7E79DF8FA
:10081400412042F004028DF8412002331A786C2AF8
:1008240047D02BD8682A31D06A2A4BD04C2A51D0D1
:100834001A4612F8013B0392782B9DF841208DF85B
:10084400433000F2BE806D2B51D8692B00F2B98081
:10085400572B67D8412B03D0453B022B00F2B180C4
:100864009DF84230042262F302038DF842300123E2
:1008740073E00CFB0202303A0B465DE7742A25D084
:100884007A2AD5D19DF8412006210CE05A78682AAD
:100894009DF8412006D1012161F3C6028DF8412063
:1008A4000233C5E7022161F3C6028DF8412001330A
:1008B400BEE75A786C2A9DF8412001D10421EBE768
:1008C4000321F0E79DF841200521ECE79DF8412044
:1008D4000721E8E7BDF8402022F4F04222F00202AA
:1008E40042F4804242F00202ADF84020DFE76E3B62
:1008F400D9B201238B4040F282410B4237D113F02D
:10090400240F51D1D8075CD59DF84230032161F3FF
:1009140002038DF8423002F07803A3F140014B4208
:100924004B411AE0A3F15801C9B2012000FA01F1C8
:1009340011F4624F94D140F6010631421DD111F4F5
:10094400043F3ED09DF8423060F3020302F0780287
:10095400402A8DF8423034D000239DF84020C2F361
:1009640040010B4363F341028DF84020FDE69DF8FE
:100974004230022161F30203E8E79DF842100220AD
:1009840002F0780260F30201402A8DF8421002BF9F
:100994009DF8401041F001018DF84010632BDBD12C
:1009A400131E18BF0123D8E79DF84230032161F3D9
:1009B400020312F0780F8DF8423014BF0123002394
:1009C400CBE79DF8403043F001038DF84030C3E796
:1009D4009DF94020002AB4BFDDF844804FF0FF3871
:1009E400D5E698077FF5E2AEDDF848A09DF8411002
:1009F4000023CDE911339DF8423003F00703012BA6
:100A0400C1F3C30133D1CB1E042B04D8DFE803F0B8
:100A1400214646212100236801294FEAE372CDE9EA
:100A24000E321CD19DF93830DA17CDE90E32043478
:100A34009DF8403013F0030650D0039B3A465946C4
:100A4400484602F0FDFB0028C0F253810544039F91
:100A5400F2E554F8043BDA17CDE90E32E8E702294F
:100A6400E5D11AB243F3C033CDE90E23DFE7022BFD
:100A740024D1CB1E042B04D8DFE803F0181010187F
:100A84001800012954F8043B4FF0000214D0022945
:100A9400CDE90E32CCD19BB20E93C9E7073424F0D2
:100AA4000704F4E80223CDE90E23C1E754F8043B1C
:100AB4000E9300230F93BBE7DBB2CDE7042B08D1E1
:100AC400073424F00704D4E900230834CDE90E23C5
:100AD400AEE7032BACD154F8043BDDE79DF84300AB
:100AE4007828B4D862281CD825283FF4ADAD5828FE
:100AF400ADD10DF136030093DDE90E0108AB10AA68
:100B040002F058FBBAF1000F074680F29A80002FDA
:100B14009DD00DF13603D81B002E00F0C1800130AA
:100B2400BEE06338152892D801A252F820F000BF25
:100B3400090C00081B0C0008530A0008530A00089B
:100B4400530A0008530A00081B0C0008530A000843
:100B5400530A0008530A0008530A0008A90C0008A5
:100B6400410C0008670C0008530A0008530A0008E7
:100B74008D0B0008530A0008410C0008530A0008B2
:100B8400530A0008410C0008BAF1000F0E9F35DB30
:100B94005146384602F086FB07EB000A002F3FF46B
:100BA40056AF00269DF8423013F01002059200F073
:100BB400938002305B06119A48BF129B0492104442
:100BC40048BFC018B8F1000F40F3A0809DF8402042
:100BD400A8EB0008C2F380035007069300F1968047
:100BE400510640F189803EB159463046C847002835
:100BF4007FDB069B01351E4630227EE0384602F03C
:100C04004AFBC9E70E9B8DF82030002608AF0DF192
:100C1400210A0120C6E719075CBFC3F300135E0174
:100C2400DDE90E2348BF2B26002BBFF662AF5242EC
:100C340063EB4303CDE90E232D265AE7002658E73C
:100C440000269DF840200DF13603DB1B6FF386125E
:100C54009A458DF840207FF65AAFAAEB030311930F
:100C640055E70E9890B30DF13603009310AA08AB24
:100C7400002102F09FFABDF8423003F0EF0343F481
:100C8400F04343F01003BAF1000F0746ADF84230C9
:100C9400D6DA00283FF4DBAE0DF13603181A00262D
:100CA4009A467FE70E9B07293FF6D1AEDFE801F0B5
:100CB4000C04060C08080C0C1D70C8E61D80C6E662
:100CC400EA17C3E90052C2E61D60C0E62E4F06468D
:100CD40007F1050A052065E71A0748BF013069E7EF
:100CE4000793104606925946C8470028DDE90623B3
:100CF40004DA15B0BDE8F08F2022434619460029D6
:100D040003F1FF33ECDC45446D1A98462EB1594685
:100D14003046C8470028ECDB01359DF84230DA063E
:100D240001D41B0705D559463020C8470028E0DB0D
:100D34000135059B33B19DF843005946C847002847
:100D4400D7DB0135049E2E4405E059463020C847C0
:100D54000028CEDB0135731B002BF6DC53463A46E4
:100D64005946484602F06CFA0028C2DB0544A84400
:100D7400A8EB0503002B7FF76AAE59462020C8472D
:100D84000028B6DB0135F3E7064700084FF01002F0
:100D9400EFF3118382F31288BFF36F8F83F311880B
:100DA400BFF36F8F044B054A1A60054A536843F03A
:100DB40001035360002070473C02002000127A00B7
:100DC400002004E0014910220A60704710ED00E0A1
:100DD40072B6404080F31188BFF36F8FBFF34F8F1B
:100DE40030BF62B6BFF36F8F704700BF40B20028B8
:100DF40007DB044A4109012300F01F00834042F845
:100E04002130704700E100E040B20028A8BF00F1A3
:100E1400604001F10101B8BF064B4FEA0111ACBFBC
:100E240000F5614000F00F00C9B2B4BF195480F856
:100E34000013704714ED00E030BFFFF7FDBF00BFA3
:100E44000F4A08B50F4B22F07F029A60BFF34F8F11
:100E5400BFF36F8FD3F8882022F47002C3F8882080
:100E6400EFF3148323F0040383F31488BFF36F8F29
:100E740001F0E4FA01F06AFF00F014FA01F022FB39
:100E84000000000800ED00E0094A0A499368096877
:100E94009967094958674B6843F080534B600023B6
:100EA40083F31188BFF36F8F9368986F704700BF07
:100EB400940400200846000800ED00E012498A6806
:100EC4004FF030001044EFF3098C80E8F01F10203D
:100ED40080F31288BFF36F8F0C4F4FF000664A699E
:100EE4008A603E60506F0023536780F3118804B515
:100EF400104600F01BFABDE8044002F1300090E80F
:100F0400F01F8CF3098870479404002004ED00E07E
:100F14001EF0040F0CBFEFF30880EFF30980816922
:100F240011F8021C0229FFD001B502F0A5F901BD98
:100F340042F8203C009B42F81C3C0A49019B42F8C1
:100F4400183C029B42F8143C21F001014FF08073DD
:100F540042F8043C42F8081C0023203A0265436727
:100F6400704700BFA5310008094A0346906870B174
:100F740013F1160F406E05D0A0F140029A4205D835
:100F8400834203D2814228BF00207047002070476B
:100F94009404002008B5094B98600D46144600F0EF
:100FA400C5F9204685F30988002163B681F31188C9
:100FB400BFF36F8F0022002302F0F2F894040020A4
:100FC40001B5EFF30580A0F110004FEAC000044919
:100FD400014409C99847BDE8014002490847000097
:100FE400643F0008ED0F0008044B99685869884273
:100FF40003D003494FF080520A60704794040020E4
:1010040004ED00E070B5264B15469A6A12F0100FF5
:101014009A6A14BF1124102412F0080F9A6A18BF98
:101024001224920706460AD5586B9A6A140634D5D8
:1010340019B19A6A22F080029A62132401E06FF0D7
:101044001500174B9A6A12F0010F9A6A18BF1424FC
:1010540012F0200F9A6A18BF1524D20602D49B6A94
:101064009B070AD50E4B5B68190506D53146FFF779
:101074007BFF10B180F309880224094B9A6A920617
:1010840042BF5A6A22F400525A629A6A42F0FF023C
:101094009A6200232B70204670BD6FF01500CCE7D8
:1010A40000ED00E0134B9A6A12F0007F9A6A14BFB5
:1010B4001E201D2012F0807F9A6A18BF1F2012F490
:1010C400002F9A6A18BF212012F4802F9A6A18BF41
:1010D400222012F4003F9A6A18BF232012F4803FA2
:1010E4009A6A6FEA02426FEA12429A6218BF242097
:1010F400704700BF00ED00E010B5194B0246986A36
:101104009C6A10F4805F14BF1720162014F4006F3B
:101114009C6A18BF1820A40509D5986B986A000426
:1011240004D51AB19A6A22F400429A6219200C4B2F
:101134009A6A12F4806F9A6A18BF1A20D2050CD4E6
:101144009B6A13F4005F18BF1C20054A936A43F49A
:101154007F43936200230B7010BD1B20F5E700BF93
:1011640000ED00E070B5454B5B688AB00546C3F3FB
:101174000803002686F31188BFF36F8F02F07F40C7
:10118400B0F17F4F11D102F00C0008280DD01007E8
:101194004CBF0D4601260022033B8DF80720032B8C
:1011A40005D8DFE803F01E5D615A3546F3E70024F5
:1011B4009DF807309BB92022294602A802F07BF84B
:1011C400099B002E54D0C3F3080222B96FEA5323BB
:1011D4006FEA4323099302A9204602F04BF80AB0B0
:1011E40070BD264BDA6A9107E1D4DA6A002ADEDBA5
:1011F400DA6A5200DBD55A69A96942F480725A61ED
:10120400BFF34F8FBFF36F8F5A6931F8021C22F47A
:1012140080725A61BFF34F8FBFF36F8F4DF6027226
:1012240091420AD09A6AD2B24AB10DF10702012161
:101234002846FFF7E7FE0446BAE72C68B8E79A6A3F
:1012440012F47F4F05D00DF107010120FFF754FF81
:10125400F1E79B6AB3F5803FA9D3FFF723FFEAE7E1
:101264000DF107020021E3E70DF107010020EDE78E
:1012740023F4FF7323F00103ACE700BF00ED00E0AB
:10128400024A536943F010035361704700ED00E0D4
:10129400EFF30880EFF3098101B57246FFF762FFAF
:1012A40001BD00BF044800231021C2180133552B8F
:1012B40082F80013F9D1704700E100E0102080F3B8
:1012C400118808484FF40461401880F30988EFF34B
:1012D40014800221084380F31488BFF36F8FFFF753
:1012E400AFFD000000050020084B9B6883420BD132
:1012F400EFF3058343B1064B5A6842F080525A60BB
:101304005A6A22F400425A6201F0C0BC94040020DC
:1013140000ED00E0024B034A0348012100F070B8DD
:10132400000001200000002018430008426E054B15
:10133400403A1A60044A4021C3E9011218460121C7
:1013440000F068B89803002000000B15F0B5204E9B
:1013540000258D4239DA446874B353B104F1FF3C7B
:1013640014EA0C0F2FD11F2C2DD907681CEA070F84
:1013740029D1202C0768D0F808C05FFA82FE1ED954
:10138400B4F1004F1DD8013CB4FA84F4C4F11F0435
:101394006400BEF1070F4CEA040C14D827F01F04B4
:1013A400144344F01004C6F89820C6F89C404CF04E
:1013B4000104C6F8A040013201350C30C9E7082405
:1013C400E7E73E24E5E76FF015021046F0BD00BFE5
:1013D40000ED00E0044B0522C3F89420BFF34F8FC7
:1013E400BFF36F8F704700BF00ED00E0BFF35F8F66
:1013F400024B0022C3F89420704700BF00ED00E0C8
:1014040010B5034C01232278FFF7A0FF207010BD14
:10141400C404002008B5094A00231278FFF796FF98
:1014240010F1160F02D0064A072800DD08BDC2F8E5
:101434009800C2F8A0300130F6E700BFC4040020D1
:1014440000ED00E014490868082810B521D8FFF71A
:10145400CDFF124C49680022904201F10C0105D1E4
:101464000F4B1870FFF7B6FF002010BDC4F898208A
:1014740051F80C3C23F01F03134343F01003C4F84A
:101484009C3051F8043C43F00103C4F8A03001320D
:10149400E2E74FF0FF30E8E72443000800ED00E006
:1014A400C4040020014B1860704700BFFC010020F9
:1014B4002DE9F0410E4E0F4F054600244FF0010870
:1014C4002B7818191F280DDC726908FA00F333EA27
:1014D400020207D1736157F830301BB107EBC00229
:1014E400516898476B780134A342E9DABDE8F0818A
:1014F40000040140A4030020044B184400230133DA
:10150400994200F8012BFADC704700BF4802002022
:1015140010B4064B064902460C6818560123934042
:1015240023430B6010BCFFF761BC00BF48020020DE
:10153400000401401F2806DC034901220B68824095
:1015440023EA02030B6070470004014003292AD8F0
:10155400DFE801F0020E141F134B01229968824048
:1015640021EA02019960D96821EA0202DA6070472F
:101574000D4B0122996882401143F3E70A4B012283
:10158400D96882401143D960996821EA02029A60BD
:101594007047012303FA00F0034B9A6802439A60F0
:1015A400DA681043D86070470004014010B5074B57
:1015B400044653F8300028B943F8341003EBC4034D
:1015C4005A6010BD6FF00F00FBE700BFA4030020BA
:1015D400034B002243F8302003EBC0035A607047EA
:1015E400A403002013280ED8084A12F8103053B16F
:1015F40002EB4002527832B108684343002093FB67
:10160400F2F30B6070476FF0150070474B4700080A
:10161400F0B50E7906F01F04132C5BD84B8843F603
:10162400FF72934254D02D4F002237F8025B45F4E9
:101634004045AB4205D00132082AF6D1002B49D1EE
:101644001A46B30646D40B78082B43D14B78042BA7
:1016540040D143681868022304EB4401092C03FABF
:1016640004F343EA846386BF1E3943EA015343EA21
:1016740001531B4988BF43F0007351F8221003F053
:1016840000744FF0007292FAA2F2B2FA82F21430AD
:10169400D44003F0F8734FF0F87292FAA2F2B2FA5F
:1016A40082F250F8245023FA02F2072606FA02F2D4
:1016B40025EA02054FF0F87292FAA2F2B2FA82F227
:1016C400D34001FA03F32B4340F824300020F0BD4B
:1016D4000722B6E76FF01500F9E700BF24460008BB
:1016E400F04300080368B3F1A04F6FEA01010ED084
:1016F400084A93420BD002F5C06293680B4091688C
:1017040003F0E07321F0E0710B4393607047024AE9
:10171400F3E700BF00010050000300500368B3F179
:10172400A04F0DD0074A93420AD0074B9A6802F0A3
:10173400E07211439A6822F0E0720A439A6070479B
:10174400024BF3E700010050000700500003005073
:101754002DE9F04F036989B0403306460D460593E1
:101764004FF0FF3305984FF0FF3200F0B5FF2B7CAC
:10177400063B062B21D8DFE803F004202F20292084
:101784002C004FF0180A736834691F68AB68C4F8FA
:101794009430D5F80480C4F8A0804046FEF712FDCA
:1017A400834B84F8A40008F1FF324FF000099A42F9
:1017B40084F8A59001D8102811DD6FF01504059860
:1017C40000F06AFF204609B0BDE8F08F4FF0080A28
:1017D400D9E74FF0000AD6E74FF0100AD3E74FF4E9
:1017E400407393FAA3F30693B3FA83F3CDF80C9002
:1017F400079398FAA8F9B9FA89F90222B9F1090FFD
:1018040009EB4901D6F804B002FA09F242EA896206
:101814008ABF1E3942EA015342EA01529BF914106D
:1018240088BF42F0007304934945DBF8003002930B
:101834000AD1184601F0CDFD70684FF40001FFF79E
:101844006DFF782002F04DFA9BF9151049450AD135
:10185400029801F0BEFD70684FF48001FFF75EFF4F
:101864000C2002F03EFA9BF916204A4507D1029853
:1018740001F0AFFD70684FF08071FFF74FFF4D4AE4
:101884009DF80CE0069B52F82E10002B079B0CBF12
:1018940020221A4601F4407C2CFA02FC07F13000A5
:1018A40001F01F0150F82C301F228A4023EA020263
:1018B400049B4FEA936B0BFA01FB42EA0B0240F8DC
:1018C4002C203D493A6B51F82E1022F00F020A43A6
:1018D4003A63012202FA09F3039A38EA030802F18F
:1018E4000102039285D194F8A4302A685B0012B1F6
:1018F400928902FB0333EA689A4253D3FB6823F0CC
:10190400180343EA0A03FB606B7C002B4DD1AB7CCC
:101914002BB1384601F05DFD706801F085FD384655
:1019240001F029FD7B6843F004037B602F460FCF51
:1019340004F164060FC63B683360002626662B68F4
:1019440063B30FCB04F1780585E80F006566A4F84E
:10195400886018B3BFF35B8F54E8003F44E800622B
:10196400002AF9D1BFF35B8FA06F633046F1000109
:1019740064220023FEF70CFC0022CDE900010023C1
:1019840004F1080001F0C6FB4FF0FF3204F15000EF
:101994004FF0FF3300F0A0FE246E10E7204601F064
:1019A40050FDF1E76FF00B0409E76FF0850406E7DB
:1019B400FEFF0F0050440008104400082DE9F347CF
:1019C4004668D0F8108034680546334F384602F034
:1019D4007BF8002859D0BB68C8F8905006F1080974
:1019E4001B684946384698478246002850D101462C
:1019F40001AA306901F04EFF002841DB019B5246E9
:101A04001979186800F0DAF9002839DBA36823F0A3
:101A14004053A360A36823F0104323F03F0343F033
:101A24008053A3600A2001F0EBFAB4F1A04F2AD04E
:101A34001A491B4B1B4A8C4208BF13469A6822F46E
:101A4400403242F400329A60204601F0C2FC6868D9
:101A540001F0EAFCBB68DB681BB10F4801AA4946E8
:101A64009847204601F087FC002809DB73689847F3
:101A7400D8F848301BB908F1400000F00DFE0020F2
:101A840002B0BDE8F087074BD8E76FF01200F7E724
:101A94006FF00400F4E700BF143E0008000100509A
:101AA400000700500003005010B5164B18680B686F
:101AB400052B144611D0072B09D873B1013B062B13
:101AC4000BD8DFE803F00D0D0A0E0A131900182BCA
:101AD40007D01C2B08D0142B03D06FF0850002E034
:101AE40000202060002010BD4008FAE700F094F8C0
:101AF40028B100F091F8F4E749F64040F1E76FF0BF
:101B04000400F0E73C02002070B5374C374E01F07A
:101B14008FFD00F005FC6368354AC3F30313D35CFF
:101B240020FA03F5B54202D8324800F025FC2368B8
:101B340043F480232360236843F4803323602368C1
:101B44009B03FCD5636A43F001036362636A9807ED
:101B5400FCD5636803F00C03082B15D1636823F0EC
:101B6400F00363602368990706D4236843F00103F4
:101B7400236023689A07FCD5636823F0030363603A
:101B8400636813F00C0FFBD1236823F08073236088
:101B940000F034F8236843F08073236023689B01CA
:101BA400FCD5636823F0F0036360636823F00303E8
:101BB40043F002036360636803F00C03082BFAD15B
:101BC400B54202D90B4800F0D7FB0B4B094A1A6007
:101BD400636823F4E06343F480636360636823F41D
:101BE40060536360002070BD00100240FFA14A04EE
:101BF4002948000800A24A043C020020054A536810
:101C040023F4761343F4E8135360D36A23F00F03E9
:101C1400D3627047001002404FF4E0134FF4701287
:101C240092FAA2F2B2FA82F2D34002480233584343
:101C3400704700BF00127A0008B5074801F044FF5E
:101C440038B10648FFF72EFC0448FEF7D9FC002003
:101C540008BD6FF01200FBE7EC3E0008651C0008AD
:101C64000A2838B5074D044604D1AB680D215B68DA
:101C740028469847AB6803485B68E1B2984720461A
:101C840038BD00BFEC3E000838B50369044658600F
:101C9400084D284601F018FF40B16168AB680C316B
:101CA4001B682846984700EAE07038BD6FF01200C0
:101CB400FBE700BF143E0008F7B51746B7F5001F51
:101CC400466802690C461D4624D101F00302043221
:101CD40092000F23934043EA9103DAB2334902326C
:101CE40051F82220190C02EA134391FAA1F2B2FA34
:101CF40082F2D340B2689A4209D12046FFF71AFC17
:101D04002046FFF765FC00212046FFF71FFC00205A
:101D140003B0F0BDB7F5800F41D025492046FFF749
:101D240045FC00283ED1234AB66892E803006B467E
:101D340083E8030020488268194612689047C0B9B6
:101D440004F0030304339B000F229A4042EA9402F6
:101D5400D3B29B0003F1804303F58033110C9868E0
:101D640020EA124091FAA1F2B2FA82F296400643B6
:101D74009E60B5F1806F0ED0B5F1C06F0DD005F146
:101D84007E435942594149002046FFF7DFFB204674
:101D9400FFF7BEFBBBE70121F6E70321F4E76FF091
:101DA4008500B5E76FF00F00B2E700BF0000014007
:101DB40041380008C0420008143E00082DE9F047ED
:101DC4001E4F044600EBC1060025B44201D1002099
:101DD40014E02068C30600F01F0911D4656845F0BB
:101DE4002005C0F3471AC0F343200A2823D857F824
:101DF4002080B8F1000F0DD16FF01200BDE8F0871C
:101E0400B9F1100F04D0B9F1110FEAD16568E8E710
:101E14003025E6E7404601F057FE0028ECD04B465B
:101E24002A460AF00F01404601F01FFD002804F184
:101E34000804CADAE2E76FF01500DFE72C45000872
:101E4400F7B50769446806464648786001F03CFEE9
:101E540020B96FF01205284603B0F0BD78686168B8
:101E640083681B68984705460028F4D1014601AAF7
:101E7400A06901F00FFD002801DA0546EBE7019B9C
:101E84002A4619791868FFF799FF0028F5DB2268BC
:101E9400136823F001031360B86801F015FE0028ED
:101EA400D7D0D7E902018368DB6803B1984721687A
:101EB40051E8003F43F00C0341E80032002AF7D117
:101EC4002369022B48D0012B12BF00204FF480500D
:101ED4004FF4C06221680B6823F0805323F4B0539D
:101EE400104303430B604B6823F440534B60237B44
:101EF4002BB173681A68936843F44073936039682C
:101F0400304601F014FD237D23B12268936843F029
:101F140008039360637D23B12268536843F400434C
:101F24005360A37D23B12268536843F48033536024
:101F3400E37D23B12268536843F40033536022687D
:101F4400136843F0010313602368DA699102FCD536
:101F5400DA695202FCD57EE74FF480504FF4806278
:101F6400B8E700BF143E00082DE9F0410B7945683D
:101F74000669012B0C4600F085809A1E514251419E
:101F8400890294F805C094F80680BCF1020F96BF4C
:101F9400624A4FF4005732F81C70E279B8F1020F2C
:101FA40073D0B8F1040F00F09980002B7AD1012A84
:101FB4002CF0020C40F0A380BCF1000F00F08E80E6
:101FC400B8F1010F40F28A804FF4407ED5F800C08A
:101FD4006AB1DFF84C81C44507D0A8F57448C445FC
:101FE40003D008F58068C44578D1012A76D1DCF89D
:101FF400002022F00102CCF800204268D2F800C090
:10200400DCF8002002F4C06291421FBFDCF800201B
:1020140022F4C0620A43CCF80020426811684A687E
:1020240002F4405297421FBF4A6822F440523A4396
:102034004A60426811680A6802F010229A421FBF7F
:102044000A6822F0102213430B6043681A689368ED
:1020540003F440739E451FBF936823F4407343EA1F
:102064000E03936021683368994203D001F05FFC4A
:10207400236833602A68136843F001031360002067
:10208400BDE8F0814FF4C0617BE70BBB012A2CF063
:10209400020C2FD1BCF1000F20D04FF4407E4FF042
:1020A400805393E7033B012ADBB20CD1012B15D9F2
:1020B4004FF4407E1CF0FD0F10D0B8F1010F0DD984
:1020C4004FF4805382E7012B08D94FF0000EF1E75B
:1020D400033B012ADBB204D0012B19D86FF0850031
:1020E400CEE7012BFAD91CF0FD0FF7D04FF4407E58
:1020F40000236BE7BCF1000FF0D09E46CFE7BCF1A4
:10210400000FEBD0B8F1010FE8D99E4673465DE7A6
:102114001CF0FD0FE2D04FF0000EF7E73446000844
:102124000038014010B54FF0E0239A6919699869A5
:10213400094B11F4803F094901D1824206D21A6841
:102144000C6822441A604FF0E02212691B680A6886
:102154001344181A10BD00BF84040020900400200A
:10216400094B102283F82320084B41F61F421A60C2
:10217400074B002018604FF0E0235A6198611A69F8
:1021840042F007021A61704700ED00E0900400205D
:102194008404002008B5FFF7C5FF0C4B0C4A1868EF
:1021A40011680844106000221A600A4A13684FF448
:1021B400E151C01AB0FBF1F001FB0033136000F0F1
:1021C4009BFEBDE80840FEF70FBF00BF840400205B
:1021D4008C040020880400202DE9F041314E0029B0
:1021E40054D0421C0AD14FF0E022136923F00103BA
:1021F40013614FF07F433360BDE8F08135680128F7
:102204004ADD40F61918404501DC00F1FF384FF073
:102214001003EFF3118483F31288BFF36F8FFFF77A
:1022240081FF214F4FF0E0230021D3F818C03B6811
:10223400C2181E4B19601E4B1B68D11A2FD44FF4C1
:10224400E15000FB081101F5E0519B1A1F31B1FB6D
:10225400F0F100FB0133B3F5806F20D915498B42AF
:1022640028BF0B464FF0E02133608869013B4B6186
:1022740000238B618445ACEB000338BF5B191A441F
:102284003A6084F31188BFF36F8FB5E7431C356858
:10229400B5D140F61910B8E74FF00008B7E74FF48E
:1022A4008063DFE7900400208C0400208404002075
:1022B4008804002020DFFF0010B54FF01003EFF377
:1022C400118483F31288BFF36F8FFFF72BFF074B43
:1022D400074A1B6812689B1A034484F31188BFF3EE
:1022E4006F8F4FF4E150B3FBF0F010BD8C0400206D
:1022F4008804002010B54FF01003EFF3118483F32A
:102304001288BFF36F8FFFF70DFF044B1B6818444F
:1023140084F31188BFF36F8F10BD00BF8C040020BD
:1023240010B511494B6803F00C02082A1AD103F4C2
:1023340070134FF4701292FAA2F2B2FA82F2D340FE
:102344000A4A0B48D45CCB6A0F2203F00F0392FABB
:10235400A2F2B2FA82F2D340064AD35CB0FBF3F0A5
:10236400604310BD0248FCE70010024049480008E1
:1023740000127A0039480008D8B10F4B984216D899
:102384000E4B984294BF002001200D4A136823F09D
:10239400070303431360136803F0070398421CBF49
:1023A400136803F00703C01A18BF01207047022006
:1023B400EBE70120704700BF006CDC0200366E01C1
:1023C400002002400F4B70B553F82040013053F801
:1023D4002060A64200D870BDD4E90035284698474D
:1023E4006DB138B10028B8BF4042EB68FF28A8BFE0
:1023F400FF201870EA68537843F0010353700834DF
:10240400E7E700BF0C46000808B50A4B0122032089
:102414001A70FFF7D7FF00F0ADFE0420FFF7D2FFDC
:1024240000F0EEF8FEF732F8034A137B23F00103C1
:10243400137308BDC5040020F802002008B5034842
:10244400034A0021121A01F071FB08BD7802002032
:10245400C804002070B5002386B00122CDE904230E
:10246400134E144D01930F22CDE902321249142365
:1024740003FB005506EBC01604464FF4C07000FB86
:1024840004110E4B00954FF4A072304600F086F80C
:10249400737B0B4AEE6023F0040373734FF40463FD
:1024A40004FB033313442C746B6006B070BD00BF8F
:1024B4007802002094040020400D0020393B0008DD
:1024C4000005002080B50020A6B0FFF77BFF2C4B51
:1024D40083F308882B4D2C4E6B692C4F43F4007307
:1024E4006B610024F02385F82230EC772C766C762F
:1024F400AC7685F820406B6A43F4E0236B62FEF708
:10250400BFFEFEF75FFC4FF0FF33AB62EB62FEF7FA
:1025140099FFFEF7FFFE40F20113ADF8243006AB3D
:10252400B360CDE91F44229401F0CDFA0120FFF7F6
:1025340049FF0220164DFFF745FF00F0FBFA154B4B
:1025440075610593012314490094CDE903434FF4C5
:1025540080623B46CDE90144284600F01FF86A7BBF
:10256400064622F0040228466A7301F029FB20463D
:10257400FFF770FF3A4631462846FEF70BFD00BFD1
:10258400400D002000ED00E0940400200D2400081C
:10259400F802002059480008C00E00202DE9FF4130
:1025A4000E9E0673042646730D9E867300F158052D
:1025B4000F46D61DC0E916550C9A002526F00706CD
:1025C4004037C0E90655C0E919768560C573C5660C
:1025D40006F1400802920B9A019288440A9A0092EA
:1025E40042460446FEF7A4FC044B65659B6803B1B0
:1025F4001B6F2367404604B0BDE8F08194040020BB
:10260400F0B5224C224D87B02646AE4204F12C048C
:102614000BD300F05FFA1D4C1E4F0A26AC4220D3A8
:1026240007B0BDE8F04000F069BA54F8043C0593E3
:1026340054F80C3C049354F8103C039354F8143CA1
:10264400029354F8183C019354F81C3C009354E949
:10265400092354E90B01FFF7A1FF54F82C3C5E65F4
:10266400D2E7626A531C09D022EAE27282FB062393
:1026740052EA0301206803D100F0DCF92C34CDE7E1
:102684003946183000F0C2FBF8E700BF0C420008DE
:102694000C4200084D3C000838B504464FF01003C6
:1026A400EFF3118583F31288BFF36F8F01F0E7FA1C
:1026B40048B10022826701F083FA29460548BDE843
:1026C400384000F0A5B9D4E902329A4218BF013368
:1026D400A360F2E7C604002013B54FF01004EFF333
:1026E400118184F31288BFF36F8F846844B1013C75
:1026F400846081F31188BFF36F8F002002B010BD96
:1027040052EA030406D181F31188BFF36F8F6FF08F
:102714000F00F3E7CDE900230246024800F05AF91E
:10272400ECE700BFC6040020044BC01A044BC010E1
:102734005843044B01221A54704700BF7803002009
:10274400ABAAAAAAC604002070B50C4B0C4C1D7C85
:1027540005EB450304EBC304204601F0D3FA094B0F
:102764001A6852B1084B00215955013A20460749CD
:10277400BDE87040D31700F049BB70BD940400203D
:1027840078030020BC040020C60400202D27000884
:1027940038B50D4D2B4653F8184F9C4200D004B960
:1027A400EC68AB6838B95A7BD20604D1A26912B975
:1027B400DA897F2A05D89C4202D02046FFF7C4FF5D
:1027C40023466B6138BD00BF9404002070B590F9B6
:1027D4000D20437B002A014604DA03F07F03437390
:1027E40001F0B4F94B7B154A63F07F0310464B7339
:1027F40050F8183FD469834208BF002323B9C1E9C4
:1028040000042160D1610CE091F90E5093F90E603F
:10281400B5420ED0AE420CDD5868C1E9003001600B
:1028240059609068431A5842BDE870405841FFF718
:10283400AFBF9C42E3D01B68E0E700BF94040020D4
:1028440070B490F90D30427B002B29DBD30627D1DD
:1028540083692BBB134962F07F0242730A4652F824
:10286400184F944218BF2346CC6923B9C0E9002409
:102874002060C8610CE090F90E5093F90E60B542E7
:102884000AD0AE4208DD5A68C0E9003210605860D0
:1028940070BC0020FFF77CBFA342E7D01B68E4E7CD
:1028A40070BC70479404002008B590F90D20437B58
:1028B400002A014604DA03F07F03437301F046F96A
:1028C400044B9868431A58425841BDE80840FFF742
:1028D4005FBF00BF9404002070B515461C46064631
:1028E40001F046F9B4F1FF3F08BFB5F1FF3F08D04E
:1028F4002A46234606F118000249BDE8704000F05C
:1029040085BA70BD4D3C000810B54FF01003EFF3CD
:10291400118483F31288BFF36F8F0A23002800FB0E
:1029240003F302DD022BB8BF0223064A1360064BF1
:102934001960064B9868FFF707FF84F31188BFF30B
:102944006F8F10BDBC040020B80400209404002044
:1029540038B54FF01003EFF3118583F31288BFF3FA
:102964006F8F164B164A9C6811688C4207D120461B
:10297400FFF7EAFE85F31188BFF36F8F38BD00219E
:102984001160104A1268002AF4D0E2897F2AF1D833
:10299400627BD206EED10C4A94F90E101268914271
:1029A400E8DB0A4A9442E5D01B7C094AD35C002B3D
:1029B400E0D02046FFF70AFFD9E700BF94040020C7
:1029C400B4040020BC040020B804002078020020D5
:1029D400C604002070B50C480C4D86682E600C4669
:1029E4001146DDE904234FF01006EFF3118586F359
:1029F4001288BFF36F8F8068FFF76EFF2046BDE833
:102A04007040FEF741BA00BF94040020B4040020D3
:102A140049B9EFF3058030B9054B5A699B689A426E
:102A240001D0FEF731BA81F31188BFF36F8F70477D
:102A34009404002010B54FF01002EFF3118482F3D8
:102A44001288BFF36F8F427B510704D484F311883B
:102A5400BFF36F8F10BD22F004024273FFF7F0FE44
:102A640021460248BDE81040FFF7D2BFC70400204A
:102A740070B50446183001F045F94FF01003EFF338
:102A8400118683F31288BFF36F8F94F90D20637B53
:102A9400002A05DA03F07F036373204601F056F839
:102AA4000B4D637BA86843F010036373031B584208
:102AB4005841FFF76DFE86F31188BFF36F8FAB6843
:102AC400A34203D1BDE8704001F001B970BD00BF5D
:102AD400940400204FF01003EFF3118183F3128864
:102AE400BFF36F8F044B9A68D37B013BD37381F39D
:102AF4001188BFF36F8F70479404002010B54FF016
:102B04001003EFF3118483F31288BFF36F8F084B24
:102B14009A68D37B0133D3730020FFF739FE84F323
:102B24001188BFF36F8FBDE8104001F0D0B800BF2B
:102B340094040020044B002103F11802C3E9062287
:102B44000846FFF7E1BE00BF94040020F8B54FF03B
:102B54001003EFF3118583F31288BFF36F8F1949C4
:102B64008868437B03F07F03437300F0EFFF8B68B7
:102B74005A7B084662F07F025A7350F8182FCC69CA
:102B8400824208BF002222B9C3E900042360CB615A
:102B94000CE093F90E6092F90E70BE420ED0B7426B
:102BA4000CDD5168C3E900210B6053600120FFF77D
:102BB400EFFD2846BDE8F840FEF766B9A242E3D02F
:102BC4001268E0E79404002050EA01032DE9F04183
:102BD40005460E4603D1FFF7B9FF00202CE0831C05
:102BE40071F1FF332ADB01F0A3F82C184FF0100326
:102BF400EFF3118883F31288BFF36F8F114F124BD9
:102C0400B8681860FFF750FEB86810492A46334682
:102C1400183000F0FBF8BA68537B43F01003537389
:102C24004046FEF731F901F083F8201A63EB030301
:102C3400012873F10003D0DBBDE8F0816FF00104DB
:102C4400241AD3E794040020B40400204D3C000867
:102C5400B1F1FF3F08BFB0F1FF3F08B506D1074B04
:102C64009868FFF705FF4FF0FF3008BDFFF7ACFF92
:102C74000A220023C117FDF78BFAF6E7940400201B
:102C8400014B9868704700BF940400202DE9F0417F
:102C940004464FF01003EFF3118683F31288BFF359
:102CA4006F8F037BD9070BD586F31188BFF36F8F22
:102CB400404080F311884FF0040002DFBDE8F0814A
:102CC400437B1A0704D586F31188BFF36F8FF5E7AA
:102CD40023F0200242F00801D20920D14173A368F5
:102CE40013B1204600F03AFF04F1180001F00AF88D
:102CF40004F158074FF00008A56DBD4200D0B5B9E6
:102D04000120FFF745FD104B9B68A342DBD1EFF395
:102D14000583002BD7D13046FEF7B6F8D3E703F08E
:102D24005F0343F00803437300F010FFD7E728461E
:102D340000F014FF05F1180000F0E4FFC5F87880F6
:102D44002846FFF77DFDD7E79404002008B5064820
:102D5400064A0749121A00F0EBFEBDE80840054A8E
:102D64000549064800F0E4BE00000020740200207B
:102D7400A448000800000000A44800080000002047
:102D8400034B1B680BB9FFF797BA0020704700BFCD
:102D9400C004002010B50E4B1C689C4204D1FFF700
:102DA400EFFF6FF0004010BDFFF7EAFF002CF8D0F2
:102DB400D4E904321B1A62EBE072B3F1004F72F1F2
:102DC4000001EEDA002AACBF18460020EBE700BF92
:102DD4004002002030B570B10B4B5B6898420AD0BA
:102DE400036843B1D3E90421D0E90445121941EB46
:102DF4000501C3E90421D0E9003213605A600023BD
:102E0400C0E9003330BD00BF40020020B3F1FF3FF2
:102E140008BFB2F1FF3FF8B504461D4616465CD024
:102E240081604FF01003EFF3118783F31288BFF32F
:102E34006F8F013275F1FF3324DA2D49D1E9002077
:102E44006FF001039B1A4FF0FF3262EB00009E1BF0
:102E540060EB0500012E70F1000301DA0126002069
:102E6400C4E90460234ED6F800C07568B44508BFB1
:102E74004FF0000CBCF1000F0DD1C4E900652C60CB
:102E840074601CE0FFF77CFF013645F1000536183D
:102E940045EBE070E4E7DCE90420D4E90431934233
:102EA40071EB000E1ADAD21ADCF8043060EB010080
:102EB400CCE90420C4E900C31C60CCF804403368A6
:102EC400B34206D09C4204D1FFF764FF0021FFF710
:102ED40083F987F31188BFF36F8FF8BD9B1A61EBF9
:102EE4000001AC45C4E90431C7D0DCF800C0C1E737
:102EF40090030020400200202DE9F84F4FF010030A
:102F0400EFF3118C83F31288BFF36F8FDFF8B0A057
:102F1400DFF8B0902C4FC9F80000DAF80000002464
:102F2400504508BF00200025D7E90021D9F800301A
:102F3400E04680B3D0E9046C4FEAE37EB3427EEB13
:102F44000C0B05DAF61A6CEB0E04C0E9046422E0FB
:102F5400B21841EBE671C0E90445C7E90021FFF767
:102F640039FF88F31188BFF36F8F836898474FF058
:102F74001003EFF3118883F31288BFF36F8FD9F82E
:102F84000030DAF800009B1B5045C446C9F80030F5
:102F9400CAD1D7E900219A1841EBE3730024C7E9A9
:102FA4000023C9F80040FFF7F5FE2146FFF714F9A6
:102FB40088F31188BFF36F8FBDE8F84FFFF7C8BCE3
:102FC40040020020C00400209003002010B54FF000
:102FD4001003EFF3118483F31288BFF36F8FFFF7AD
:102FE400CFFE064A0346D2E90001181841EBE3710B
:102FF40084F31188BFF36F8F10BD00BF90030020CE
:1030040038B5044678B1FFF775F905460648074A0E
:10301400A4FB00010023FDF7BBF80446FFF76AF99F
:10302400431BA342FAD338BD00A24A0440420F0016
:10303400F8B504464FF01003EFF3118783F31288B9
:10304400BFF36F8F026822B187F31188BFF36F8FCC
:10305400F8BDD0E90A36581C46F10001022871F186
:10306400000127D3012B76F10001BCBF01231646D2
:103074005D1E46F1FF3600F05FFE013041F10001B4
:10308400401946EB0101012871F100013ADB00F01F
:1030940053FE013041F100016FF00102401946EB8B
:1030A4000103121A4FF0FF3161EB03031849204664
:1030B400FFF7ACFE236B01332363236A73B187F3F9
:1030C4001188BFF36F8F236A204698474FF010038F
:1030D400EFF3118783F31288BFF36F8F54F8185FEF
:1030E400A542B1D0002DAFD0284600F079FD0023D1
:1030F400AB6787F31188BFF36F8F2846BDE8F840AC
:1031040000F05EBD6FF001024FF0FF33CEE700BF69
:10311400353000082DE9F047B3F1FF3F08BFB2F1A5
:10312400FF3FDDE9086705461C46914698461CD0DA
:10313400531C74F1FF3309DB012A74F10003BCBF93
:103144000122002412F1FF3944F1FF38284600F02F
:10315400D9FDC5E90A6700232B634A46434628463E
:103164000349BDE8F047FFF751BEBDE8F08700BF53
:1031740035300008014800F006B800BF6148000877
:103184007047002070470FB407B504A951F8040B29
:103194000191FDF73BFA03B05DF804EB04B070470E
:1031A400044608B5084611461A46A047FFF768FDCD
:1031B400FEF79AF82DE9F84F9A46D3786F2B80469C
:1031C4000F461546A3F1410B29D024D8582B0CBF28
:1031D40010260A26DDF82890324600234046394658
:1031E400FCF7D6FF092AD4B21ED83034B045E4B275
:1031F40077F1000709F8014D01D3D14511D82B7897
:103204009B0605D5082E15D1AB7843F00803AB70A7
:103214004846BDE8F88F03F0F703702BD7E708267C
:10322400D8E780460F46D7E7BBF1190F94BF373470
:103234005734DBE7102EEBD1AB7843F01003E6E70D
:103244002DE9F0410746884615461E461446B44209
:1032540005D30EB1601B08E02378002BFAD014F8D4
:10326400010B4146B8470028F1DABDE8F081704708
:103274000020704700F03FBC0146006800F03BBCF2
:1032840000210120FFF7F6BF08B5FDF7D5FDBDE825
:103294000840FDF7A9BE034600201A5C02B9704736
:1032A4000130FAE7034600201A5C0AB1884200D1D3
:1032B40070470130F8E710B5431E0A44914200D12B
:1032C40010BD11F8014B03F8014FF7E7C9B20244EE
:1032D4000346934200D1704703F8011BF9E74FF00E
:1032E400FF30704708B5062201210020FEF704F9DB
:1032F400002211460620FDF787FD0121084607221A
:10330400FEF7FAF8002211460720FDF77DFD08229A
:1033140001210220FEF7F0F8002211460820FDF7F3
:1033240073FD092201210320FEF7E6F8002211466D
:103334000920FDF769FD0A2201210420FEF7DCF8CB
:10334400002211460A20FDF75FFD052108461722D9
:10335400FEF7D2F8002211461720FDF755FD28226A
:1033640006210A20FEF7C8F8002211462820FDF79E
:103374004BFD002008BD8368DB0707D4836823F076
:10338400004323F03F0343F00103836000207047B0
:1033940008B5002212201146FDF736FDBDE80840AD
:1033A4001220FDF723BD08B500222F201146FDF79A
:1033B4002BFDBDE808402F20FDF718BD08B50022FD
:1033C4003D201146FDF720FDBDE808403D20FDF7F6
:1033D4000DBD8368D90726D583685A070AD5836843
:1033E40023F0004323F03F0343F01003836083681A
:1033F4005B07FCD4836819070AD5836823F000436C
:1034040023F03F0343F02003836083681A07FCD44E
:10341400836823F0004323F03F0343F002038360F7
:103424008368DB07FCD470470268936823F0404349
:1034340023F03F0343F0004393609368002BFCDBCD
:103444007047D0F89430C0F89830D0F890305B686A
:103454001A68936823F0004323F03F0343F0040306
:103464009360704710B403460838BFF35B8F50E88D
:10347400002F511C40E80014002CF8D1BFF35B8FDF
:1034840012B910BCFFF7DDBF6FF00F0210BC9A65D4
:1034940070472DE9F843436804691B681A6CD4F833
:1034A4009430991CC4F894101A8094F8A53094F8B8
:1034B400A4200133DBB29A4284F8A53031D1002331
:1034C40084F8A530636EA3B3E36FB4F8882033B1F6
:1034D40004F16401984701280BD0022823D0B4F8E2
:1034E4008830B4F884209A421DD90133A4F8883076
:1034F40003E0D4F89830C4F89430A36F23B920467D
:10350400BDE8F843FFF79DBFBFF35B8F54E8003F6E
:103514005A1E44E800210029F8D1BFF35B8F012B28
:10352400EDDCBDE8F883A36F1BB104F1080000F0E3
:1035340005FCD4F89050D5F804802B69D8F80060C5
:10354400D3F8A07047B93046FFF715FF04F15000D7
:10355400BDE8F843FFF7A0B898F9143097FAA7F933
:10356400B9FA89F94B4507D13046FFF732FF68684D
:103574004FF40001FEF7B6F898F91530994507D1D4
:103584003046FFF726FF68684FF48001FEF7AAF87B
:1035940098F91630994507D13046FFF71AFF686845
:1035A4004FF08071FEF79EF8012303FA09F327EA2E
:1035B4000307C7E70B68A3F11402082A9FBF03F1AE
:1035C400804303F5043349681A689DBF0A43002009
:1035D4001A606FF0850070470B68A3F11402082A83
:1035E4009FBF03F1804303F5043349681A689DBF04
:1035F4008A4300201A606FF0850070470B68043B13
:10360400032B12D84A68FF2A0DD0D3B203F18043AA
:1036140003F50433C2F302411868C2F3042201FA29
:1036240002F202431A60002070476FF08500704771
:10363400704743685B681B690B60002070474368F0
:103644005B68586942400A4042405A610020704712
:1036540043685B6800209961704743685B68002099
:103664009962704743685A6853694B40536100201C
:10367400704710B503699868F8B1884219D1DC68BD
:1036840008689860A14200D1D860002008602AB17F
:103694009A680A60DA68996002B9D960002010E07B
:1036A400814206D108682060D8688142EDD1DC608F
:1036B400EBE7044600680028F2D1002AE8D16FF055
:1036C400150010BDF0B544680120676888401E46A7
:1036D400C2F3801327EA00078B403B43636090FAF0
:1036E400A0F7B7FA87F7D4F808C04FF0030E7F00AD
:1036F4000EFA07F72CEA070C90FAA0F7B7FA87F747
:10370400C2F3C1137F00BB4043EA0C03A36090FAE9
:10371400A0F3B3FA83F3E7685B000EFA03F327EA36
:10372400030790FAA0F3B3FA83F302F030055B00C9
:10373400C2F341229A403A43202DE26016D1072970
:103744002BDC90FAA0F3226A2BB3B3FA83F39B0029
:103754000F2101FA03F322EA030290FAA0F3B3FA69
:1037640083F39B0006FA03F31343236290FAA0F356
:10377400B3FA83F3226890FAA0F05B000321B0FA55
:1037840080F02D0901FA03F3400022EA0303854087
:103794001D432560F0BD2B46D9E7030A616A93FAFD
:1037A400A3F282B1B2FA82F292000F2793FAA3F342
:1037B400B3FA83F307FA02F29B0021EA02029E4065
:1037C40016436662D2E72A46EEE713469A0310B51B
:1037D40018D59C070FD55A072DD55022DC060CD5D9
:1037E40042F4007213F4002F446818D06468012373
:1037F4008B40A3610DE01022F0E79C06F2D542F461
:103804008062EFE7DC0311D5DA0611D4C3F3401369
:103814009A0240680023FFF755FF002010BD5B03A8
:10382400F7D5646801238B40A362F2E73022F0E706
:103834004FF40072EDE76FF08500EFE770B50B46CB
:10384400896821B101255E680C68854001B970BDA5
:103854008A682A4002D04B68304698471CB12368D6
:1038640021461C46F2E72346FAE7F8B51F4604460C
:1038740040680E461546FFF725FF112F08D1012396
:1038840003FA06F663685B682A054CBF9E619E6274
:103894000020F8BD30B5036813600579046804EBB3
:1038A400C504A34202D36FF0010030BD5C798C42A1
:1038B40001D00833F0E70020F7E74368C1F34B1069
:1038C4001B6801F01F01C05801238B40034214BF41
:1038D4000123002313700020704710B54368C1F31F
:1038E4004B101A6801F01F01845801238B402343B5
:1038F4008350002010BD10B54368C1F34B14186801
:1039040001F01F01235801228A4023EA02032350B5
:10391400002010BD38B504460D46FFF7DEFF2946EA
:103924002046FFF7E8FF002038BD0020704737B578
:103934000369456858688368DB680C46696883B125
:1039440001AA984700280CDB2A68136823F4004373
:103954001360019B2A6803EB5403B3FBF4F39BB29B
:10396400D36003B030BD42681368D869D969C90708
:10397400D969C0F3C00048BF40F002008907D96983
:1039840048BF40F004004907D96948BF40F020000F
:10399400C90542BF4FF4807140F008001962C107A5
:1039A40042BF136808211962830742BF13680121CB
:1039B4001962410742BF136802211962830642BF9C
:1039C400136804221A62704710B540680268D3690C
:1039D4001B06FCD54FF01002EFF3118382F312881B
:1039E400BFF36F8F0268D469240604D483F311886B
:1039F400BFF36F8FEAE7118583F31188BFF36F8FED
:103A040010BD43681A68D069000744BF08201062DB
:103A14001B68DA69920643BF9B8C0B7000204FF041
:103A2400FF30704703691B680B6043681B681B68A1
:103A340003F4C063B3F5806F35D0A3F5C06CDCF13B
:103A4400000343EB0C030B7143681B685B6803F4CE
:103A54004053B3F5805F28D0B3F5405F27D0002BE7
:103A64000CBF012303234B7143681B681A681B684E
:103A740002F01022B2F5805F03F4C06319D0B2F1F2
:103A8400805F1BD1002B14BF012302238B71436879
:103A94001B689B6803F44073A3F54072534253417F
:103AA400CB71002070470223CDE70023DBE702231C
:103AB400D9E7002B14BF03230423E7E7002B14BF2B
:103AC40002230323E2E7704740B1C368587810F03B
:103AD40001001EBF1878B0FA80F0400970474FF01B
:103AE4001002EFF3118382F31288BFF36F8FFEE7A6
:103AF40008B5FFF7F4FFF8B505460E464FF010037E
:103B0400EFF3118783F31288BFF36F8FFFF7B8F8D1
:103B1400314604462846FFF7EBFF87F31188BFF3CD
:103B24006F8F2046BDE8F840FDF7DEBBFFF7CEBB44
:103B3400FFF7C1BB08B54FF01002EFF3118382F316
:103B44001288BFF36F8FFDF743F9F4E7D0E9003231
:103B540013605A600023C0E90033704708B5FFF7CB
:103B6400F5FF437B23F0020343730023836008BD06
:103B740038B504460D46FEF797FE637B43F0020317
:103B84006373E5B1A5602B689D4209D16B68C4E9F4
:103B940000531C606C6012E06A689342F6D01B68A4
:103BA400002BF3D094F90E2093F90E108A42F3D02F
:103BB4009142F1DD5A68C4E9003214605C6038BD9A
:103BC40010B54FF01003EFF3118483F31288BFF3A1
:103BD4006F8FFEF735FE84F31188BFF36F8F10BD2E
:103BE40008B54FF01002EFF3118182F31288BFF38E
:103BF4006F8F83680BB1FFF7B1FF81F31188BFF3B7
:103C04006F8F08BD38B504464FF01003EFF31185EC
:103C140083F31288BFF36F8F437B13F0280F0BD10C
:103C240083680BB1FFF79AFF637B51B903F0FB0381
:103C340063732046FEF704FE85F31188BFF36F8F8C
:103C440038BD03F0EB03F3E701211838FFF7DABFBF
:103C540008B503464FF01002EFF3118182F3128886
:103C6400BFF36F8F0068834207D008B1FFF776FF78
:103C740081F31188BFF36F8F08BD0020F8E738B5D2
:103C84004FF01003EFF3118583F31288BFF36F8FA6
:103C94000468A0420DD034B12046FFF75FFF04F161
:103CA400180000F02FF885F31188BFF36F8F2046BA
:103CB40038BD0024F7E7034620B9EFF305820AB9BB
:103CC400FDF7E2B883F31188BFF36F8F70474FF0AD
:103CD4001003EFF3118083F31288BFF36F8FFFF7A4
:103CE400EABFC117633008B54FF064024FF0000318
:103CF40041F10001FCF74CFAC117FEF765FF64239C
:103D0400584308BD10B54FF01002EFF3118482F34D
:103D14001288BFF36F8F03683BB1FFF75BF8002095
:103D240084F31188BFF36F8F10BD6FF01500F7E7B0
:103D340008B5FFF74BF908BDFFF748B910B50446BD
:103D4400FFF7E0FFB0B9636A0BB12046984704F16E
:103D54001800FFF77DFF68B1FFF732FF4FF0100343
:103D6400EFF3118083F31288BFF36F8FBDE8104027
:083D7400FFF7A1BF10BD000024
:083D7C0072C4FF7F010000008A
:103D8400910D0008000000007532000800000000DA
:103D94000D1B0008143E0008E93200082C3E000800
:103DA4008D1C0008443E00088D1C00085C3E000881
:103DB4008D1C0008743E00088D1C00088C3E000811
:103DC4008D1C0008A43E00088D1C0008BC3E0008A1
:103DD4002F390008D43E0008451E0008EC3E0008B8
:103DE400451E0008043F00083D1C000800000000B8
:103DF4006521000800000000C11900081C3F0008EC
:103E0400C1190008343F0008C11900084C3F0008DC
:103E14008C4700080000000000020020600200201F
:103E2400000000007A4200082D470008000000004E
:103E34000000000058020020A4030020744200087F
:103E440099470008904400080845000862020020D1
:103E5400240400206C420008A7470008A44400087A
:103E6400084500086402002034040020644200086D
:103E7400B5470008B8440008084500086602002059
:103E8400440400205C420008C3470008CC440008F6
:103E94000845000868020020540400205442000829
:103EA400D1470008E0440008084500086A020020E1
:103EB400640400204C420008DF470008F444000872
:103EC400084500086C0200207404002044420008E5
:103ED400ED470008584500085C4500086E020020C4
:103EE4000000000038420008FE4700086C45000846
:103EF400F4450008700200201C0200202E42000835
:103F04000E480008B0450008F4450008720200207D
:103F14002C02002024420008734700084443000890
:103F2400E44300085A020020000000201C4200085C
:103F34007847000874430008E44300085C0200204A
:103F4400A8000020144200087D470008AC43000884
:103F5400E44300085E020020500100200C420008E7
:103F640000000000853200080000000085320008CF
:103F740000000000853200080000000085320008BF
:103F840000000000853200080000000085320008AF
:103F94002B470008B514000829470008B514000889
:103FA40027470008B514000825470008B514000881
:103FB40023470008B51400080000000085320008FB
:103FC400000000008532000800000000853200086F
:103FD400000000008532000800000000853200085F
:103FE400000000008532000800000000853200084F
:103FF4004C3F000897340008000000008532000898
:10400400000000008532000800000000853200082E
:10401400000000008532000821470008B51400089C
:10402400000000008532000800000000853200080E
:1040340000000000853200080000000085320008FE
:1040440000000000853200080000000085320008EE
:1040540000000000853200080000000085320008DE
:1040640000000000853200080000000085320008CE
:1040740000000000853200080000000085320008BE
:1040840000000000853200080000000085320008AE
:10409400000000008532000800000000853200089E
:1040A4001F470008B514000800000000853200080E
:1040B400000000008532000800000000853200087E
:1040C400000000008532000800000000853200086E
:1040D4000000000085320008343F000897340008CF
:1040E400000000008532000800000000853200084E
:1040F400000000008532000800000000853200083E
:10410400000000008532000800000000853200082D
:10411400000000008532000800000000853200081D
:10412400000000008532000800000000853200080D
:1041340000000000853200080000000085320008FD
:1041440000000000853200081C3F00089734000876
:1041540000000000853200080000000085320008DD
:1041640000000000853200080000000085320008CD
:1041740000000000853200080000000085320008BD
:1041840000000000853200080000000085320008AD
:10419400000000008532000800000000853200089D
:1041A400000000008532000800000000853200088D
:1041B400000000008532000800000000853200087D
:1041C400000000008532000800000000853200086D
:1041D400000000008532000800000000853200085D
:1041E400000000008532000800000000853200084D
:1041F400000000008532000800000000853200083D
:084204000000000085320008F3
:10420C00010000800080FF7F010000800080FF7FA4
:10421C00010000800080FF7F010009000080008009
:10422C00FF7F0100090000800080FF7F01000080FB
:10423C0000800A000B00FF7F010000800080FF7FE0
:10424C00010000800080FF7F010000800080FF7F64
:10425C00010000800080FF7F010000800080FF7F54
:10426C00010000800080FF7F00800080FF7F0080C5
:10427C000080030004000500060007000800090088
:0C428C000A000B000C000D000E00FF7F6C
:104298008247000800000000F54600080000000002
:1042A8000C470008000000005E48000800000000FD
:0842B8001E4800080000000090
:1042C00018000000010000004C3F00080101080434
:1042D0000000010000000C004C3F0008060108042B
:1042E0000000060000000C00343F00080101080433
:1042F0000000010000000C00343F00080C0108041D
:1043000000000C0000000C001C3F00080401080421
:104310000000040000000C0000000020000000006D
:1043200000000B06020000002C43000800000008FB
:10433000104700082400020700000020184700086A
:104340001E000B1100050050C133000814000000CE
:10435000000000205C430008FFFFFF0064430008EA
:10436000010000006C43000801000000D0030000C1
:104370000000000000040050AB33000814000000EF
:10438000000000208C430008FFFFFF00944300085A
:10439000010000009C430008020000003002000001
:1043A00000000000100200000000000000000050AB
:1043B000953300081400000000000010C4430008FA
:1043C0001012FF00CC43000801000000D443000895
:1043D000020000001000000000000000700000005B
:1043E000000000001516000855170008E40C000036
:1043F00000000000010000000200000003000000B7
:104400000400000005000000060000000700000096
:104410000000000001000000020000000300000096
:104420000400000005000000060000000700000076
:1044300008000000090000000A0000000B00000056
:104440000C0000000D0000000E0000000F00000036
:10445000060000000C000000120000001800000020
:1044600000010000060100000C0100001201000024
:104470001801000000020000060200000C0200000B
:1044800012020000180200000003000006030000F2
:10449000FFFF0000001400480500000014000000A9
:1044A00000004000FFFF0000001000480400000072
:1044B0001400000000002000FFFF0000000C004876
:1044C000030000001400000000001000FFFF0000C7
:1044D000000800480200000014000000000008006E
:1044E000FFFF00000004004801000000140000006D
:1044F00000000400FFFF0000000000480000000072
:104500001400000000000200CF3700083736000812
:1045100043360008553600085F3600086936000843
:10452000BD1C00087736000800000000BC3E0008F3
:10453000A43E00088C3E0008743E00085C3E000863
:10454000443E0008000000000000000000000000E1
:10455000000000000000000000100240BF3800080A
:10456000DF380008FB380008193900080044004013
:104570008845000801000000000000000000000065
:1045800000000000904500081C0000000000020030
:104590009845000801000000A04500080200000046
:1045A000470000000002000067000000000000005B
:1045B00000380140CC450008010000000000000068
:1045C0000000000000000000D445000818000000B2
:1045D00000400000DC45000801000000E445000840
:1045E0000200000027010000000200004701000057
:1045F00000000000073A0008CD3900086B390008B8
:104600006D1F0008293A0008F5FFFFFF843D0008F0
:10461000843D0008F43D0008FC3D0008143E0008FD
:10462000143E0008020003000500080014003E00CC
:10463000B6005A0200100000003041444320636F6E
:104640006E74726F6C6C6572206465766963652048
:104650006E6F742072656164790A00436F756C64D3
:10466000206E6F74207365747570206368616E6E60
:10467000656C2023256420282564290A00414443D1
:104680002072656164696E673A0A002D2025732CDB
:10469000206368616E6E656C2025643A2000436F6C
:1046A000756C64206E6F74207265616420282564C7
:1046B000290A00257500202876616C756520696ED1
:1046C000206D56206E6F7420617661696C61626C3A
:1046D00065290A00203D202564206D560A00686582
:1046E0006C6C6F2066726F6D206164635F726561D0
:1046F0006465720A0063627072696E74665F7061ED
:10470000636B61676500286E696C29006D707500C8
:10471000464C4153485F30005352414D5F30000AD0
:1047200006050504010301020101010001696E741F
:104730006572727570742D636F6E74726F6C6C65D8
:10474000724034303031303430300006010501041D
:104750000103010502020103020504010101020136
:1047600003010401060108010C01100118012001D8
:1047700040018041444334004144433300414443B9
:1047800031006164635F73746D3332007263634040
:104790003430303231303030006770696F40343837
:1047A000303031343030006770696F403438303029
:1047B00031303030006770696F40343830303063EA
:1047C0003030006770696F40343830303038303006
:1047D000006770696F4034383030303430300067F3
:1047E00070696F403438303030303030007265736B
:1047F00065742D636F6E74726F6C6C657200736597
:104800007269616C4034303030343430300073655C
:104810007269616C4034303031333830300075614A
:1048200072745F73746D333200000000000000008A
:104830000001020304060708090102030405060734
:1048400008090A0B0C0D0E0F1002030405060708D9
:10485000090A0B0C0D0E0F10106D61696E006F735D
:10486000002A2A2A20426F6F74696E67205A657089
:10487000687972204F53206275696C64207A657084
:104880006879722D76332E332E302D313036302D1F
:1048900067353136623637333063366563202A2A0E
:0448A0002A0A0000E0
:1048A4000000000000000000000000000000000004
:1048B4003530000800000000000000000000000087
:1048C40020000020200000206934000800000000BF
:1048D40000000000000000000000000000000000D4
:1048E4004000002040000020000000000100000003
:1048F40050000020500000200000000001000000D3
:1049040000000000000000000000000000000000A3
:104914000000000000000000000000000000000093
:104924000000000000000000000000000000000083
:104934000000000000000000000000000000000073
:104944000000000000000000000000000000000063
:1049540000000000000000003530000800000000E6
:104964000000000000000000C8000020C800002073
:10497400693400080000000000000000000000008E
:104984000000000000000000E8000020E800002013
:104994000000000001000000F8000020F8000020E2
:1049A4000000000001000000000000000000000002
:1049B40000000000000000000000000000000000F3
:1049C40000000000000000000000000000000000E3
:1049D40000000000000000000000000000000000D3
:1049E40000000000000000000000000000000000C3
:1049F40000000000000000000000000000000000B3
:104A04003530000800000000000000000000000035
:104A140070010020700100206934000800000000CB
:104A24000000000000000000000000000000000082
:104A3400900100209001002000000000010000000F
:104A4400A0010020A00100200000000001000000DF
:104A54000000000000000000000000000000000052
:104A64000000000000000000000000000000000042
:104A74000000000000000000000000000000000032
:104A84000000000000000000000000000000000022
:104A9400000000000000000087310008E332000835
:104AA400B9350008DD35000800000000AD1A000823
:104AB40000000000000000000136000800C20100F0
:104AC40000000000D43E00081102000000C20100F2
:104AD40000000000D43E00088E01000000127A009D
:104AE4004002002040020020FFFFFFFFFFFFFFFF06
:084AF400FFFFFFFFFFFFFFFFC2
:104AFC0000000000000000000000000000000000AA
:0C4B0C000000000000000000000000009D
:044B180015E015E0AF
:04000005080012C11C
:00000001FF
